{"abi":[{"type":"constructor","inputs":[{"name":"_tokenAddress","type":"address","internalType":"address"}],"stateMutability":"nonpayable"},{"type":"function","name":"owner","inputs":[],"outputs":[{"name":"","type":"address","internalType":"address"}],"stateMutability":"view"},{"type":"function","name":"prestige","inputs":[{"name":"totalPointsEarned","type":"uint256","internalType":"uint256"}],"outputs":[],"stateMutability":"nonpayable"},{"type":"function","name":"prestigeToken","inputs":[],"outputs":[{"name":"","type":"address","internalType":"contract PrestigeToken"}],"stateMutability":"view"},{"type":"function","name":"renounceOwnership","inputs":[],"outputs":[],"stateMutability":"nonpayable"},{"type":"function","name":"transferOwnership","inputs":[{"name":"newOwner","type":"address","internalType":"address"}],"outputs":[],"stateMutability":"nonpayable"},{"type":"event","name":"OwnershipTransferred","inputs":[{"name":"previousOwner","type":"address","indexed":true,"internalType":"address"},{"name":"newOwner","type":"address","indexed":true,"internalType":"address"}],"anonymous":false},{"type":"event","name":"PrestigeClaimed","inputs":[{"name":"player","type":"address","indexed":true,"internalType":"address"},{"name":"amount","type":"uint256","indexed":false,"internalType":"uint256"}],"anonymous":false},{"type":"error","name":"OwnableInvalidOwner","inputs":[{"name":"owner","type":"address","internalType":"address"}]},{"type":"error","name":"OwnableUnauthorizedAccount","inputs":[{"name":"account","type":"address","internalType":"address"}]}],"bytecode":{"object":"0x608060405234801561000f575f5ffd5b506040516109b23803806109b283398181016040528101906100319190610217565b335f73ffffffffffffffffffffffffffffffffffffffff168173ffffffffffffffffffffffffffffffffffffffff16036100a2575f6040517f1e4fbdf70000000000000000000000000000000000000000000000000000000081526004016100999190610251565b60405180910390fd5b6100b1816100f860201b60201c565b508060015f6101000a81548173ffffffffffffffffffffffffffffffffffffffff021916908373ffffffffffffffffffffffffffffffffffffffff1602179055505061026a565b5f5f5f9054906101000a900473ffffffffffffffffffffffffffffffffffffffff169050815f5f6101000a81548173ffffffffffffffffffffffffffffffffffffffff021916908373ffffffffffffffffffffffffffffffffffffffff1602179055508173ffffffffffffffffffffffffffffffffffffffff168173ffffffffffffffffffffffffffffffffffffffff167f8be0079c531659141344cd1fd0a4f28419497f9722a3daafe3b4186f6b6457e060405160405180910390a35050565b5f5ffd5b5f73ffffffffffffffffffffffffffffffffffffffff82169050919050565b5f6101e6826101bd565b9050919050565b6101f6816101dc565b8114610200575f5ffd5b50565b5f81519050610211816101ed565b92915050565b5f6020828403121561022c5761022b6101b9565b5b5f61023984828501610203565b91505092915050565b61024b816101dc565b82525050565b5f6020820190506102645f830184610242565b92915050565b61073b806102775f395ff3fe608060405234801561000f575f5ffd5b5060043610610055575f3560e01c80632302d38714610059578063715018a61461007757806383c901e3146100815780638da5cb5b1461009d578063f2fde38b146100bb575b5f5ffd5b6100616100d7565b60405161006e91906104b2565b60405180910390f35b61007f6100fc565b005b61009b60048036038101906100969190610502565b61010f565b005b6100a561023e565b6040516100b2919061054d565b60405180910390f35b6100d560048036038101906100d09190610590565b610265565b005b60015f9054906101000a900473ffffffffffffffffffffffffffffffffffffffff1681565b6101046102e9565b61010d5f610370565b565b5f620186a08261011f91906105e8565b90505f8111610163576040517f08c379a000000000000000000000000000000000000000000000000000000000815260040161015a90610698565b60405180910390fd5b60015f9054906101000a900473ffffffffffffffffffffffffffffffffffffffff1673ffffffffffffffffffffffffffffffffffffffff166340c10f1933836040518363ffffffff1660e01b81526004016101bf9291906106c5565b5f604051808303815f87803b1580156101d6575f5ffd5b505af11580156101e8573d5f5f3e3d5ffd5b505050503373ffffffffffffffffffffffffffffffffffffffff167fc86150d66acecd30d9b0f0dfe0357c4c6b59d2c2e208e5d3d90df1b7e34b17078260405161023291906106ec565b60405180910390a25050565b5f5f5f9054906101000a900473ffffffffffffffffffffffffffffffffffffffff16905090565b61026d6102e9565b5f73ffffffffffffffffffffffffffffffffffffffff168173ffffffffffffffffffffffffffffffffffffffff16036102dd575f6040517f1e4fbdf70000000000000000000000000000000000000000000000000000000081526004016102d4919061054d565b60405180910390fd5b6102e681610370565b50565b6102f1610431565b73ffffffffffffffffffffffffffffffffffffffff1661030f61023e565b73ffffffffffffffffffffffffffffffffffffffff161461036e57610332610431565b6040517f118cdaa7000000000000000000000000000000000000000000000000000000008152600401610365919061054d565b60405180910390fd5b565b5f5f5f9054906101000a900473ffffffffffffffffffffffffffffffffffffffff169050815f5f6101000a81548173ffffffffffffffffffffffffffffffffffffffff021916908373ffffffffffffffffffffffffffffffffffffffff1602179055508173ffffffffffffffffffffffffffffffffffffffff168173ffffffffffffffffffffffffffffffffffffffff167f8be0079c531659141344cd1fd0a4f28419497f9722a3daafe3b4186f6b6457e060405160405180910390a35050565b5f33905090565b5f73ffffffffffffffffffffffffffffffffffffffff82169050919050565b5f819050919050565b5f61047a61047561047084610438565b610457565b610438565b9050919050565b5f61048b82610460565b9050919050565b5f61049c82610481565b9050919050565b6104ac81610492565b82525050565b5f6020820190506104c55f8301846104a3565b92915050565b5f5ffd5b5f819050919050565b6104e1816104cf565b81146104eb575f5ffd5b50565b5f813590506104fc816104d8565b92915050565b5f60208284031215610517576105166104cb565b5b5f610524848285016104ee565b91505092915050565b5f61053782610438565b9050919050565b6105478161052d565b82525050565b5f6020820190506105605f83018461053e565b92915050565b61056f8161052d565b8114610579575f5ffd5b50565b5f8135905061058a81610566565b92915050565b5f602082840312156105a5576105a46104cb565b5b5f6105b28482850161057c565b91505092915050565b7f4e487b71000000000000000000000000000000000000000000000000000000005f52601260045260245ffd5b5f6105f2826104cf565b91506105fd836104cf565b92508261060d5761060c6105bb565b5b828204905092915050565b5f82825260208201905092915050565b7f4e6f2068617920737566696369656e74652067616e616e6369612070617261205f8201527f70726573746967696f0000000000000000000000000000000000000000000000602082015250565b5f610682602983610618565b915061068d82610628565b604082019050919050565b5f6020820190508181035f8301526106af81610676565b9050919050565b6106bf816104cf565b82525050565b5f6040820190506106d85f83018561053e565b6106e560208301846106b6565b9392505050565b5f6020820190506106ff5f8301846106b6565b9291505056fea2646970667358221220fa84fe845dfa74c877e09535211e121517c0e721a4f0fd709e2ba255e35be6d564736f6c634300081e0033","linkReferences":{}},"methodIdentifiers":{"owner()":"8da5cb5b","prestige(uint256)":"83c901e3","prestigeToken()":"2302d387","renounceOwnership()":"715018a6","transferOwnership(address)":"f2fde38b"},"id":28}