{"abi":[{"type":"constructor","inputs":[{"name":"_tokenAddress","type":"address","internalType":"address"},{"name":"_signerAddress","type":"address","internalType":"address"}],"stateMutability":"nonpayable"},{"type":"function","name":"claimPrestigeReward","inputs":[{"name":"totalTokensEarned","type":"uint256","internalType":"uint256"},{"name":"signature","type":"bytes","internalType":"bytes"}],"outputs":[],"stateMutability":"nonpayable"},{"type":"function","name":"owner","inputs":[],"outputs":[{"name":"","type":"address","internalType":"address"}],"stateMutability":"view"},{"type":"function","name":"prestigeToken","inputs":[],"outputs":[{"name":"","type":"address","internalType":"contract PrestigeToken"}],"stateMutability":"view"},{"type":"function","name":"renounceOwnership","inputs":[],"outputs":[],"stateMutability":"nonpayable"},{"type":"function","name":"setSignerAddress","inputs":[{"name":"_newSigner","type":"address","internalType":"address"}],"outputs":[],"stateMutability":"nonpayable"},{"type":"function","name":"signerAddress","inputs":[],"outputs":[{"name":"","type":"address","internalType":"address"}],"stateMutability":"view"},{"type":"function","name":"transferOwnership","inputs":[{"name":"newOwner","type":"address","internalType":"address"}],"outputs":[],"stateMutability":"nonpayable"},{"type":"function","name":"usedSignatures","inputs":[{"name":"","type":"bytes32","internalType":"bytes32"}],"outputs":[{"name":"","type":"bool","internalType":"bool"}],"stateMutability":"view"},{"type":"event","name":"OwnershipTransferred","inputs":[{"name":"previousOwner","type":"address","indexed":true,"internalType":"address"},{"name":"newOwner","type":"address","indexed":true,"internalType":"address"}],"anonymous":false},{"type":"event","name":"PrestigeClaimed","inputs":[{"name":"player","type":"address","indexed":true,"internalType":"address"},{"name":"amount","type":"uint256","indexed":false,"internalType":"uint256"}],"anonymous":false},{"type":"error","name":"OwnableInvalidOwner","inputs":[{"name":"owner","type":"address","internalType":"address"}]},{"type":"error","name":"OwnableUnauthorizedAccount","inputs":[{"name":"account","type":"address","internalType":"address"}]}],"bytecode":{"object":"0x608060405234801562000010575f80fd5b50604051620011883803806200118883398181016040528101906200003691906200026a565b335f73ffffffffffffffffffffffffffffffffffffffff168173ffffffffffffffffffffffffffffffffffffffff1603620000aa575f6040517f1e4fbdf7000000000000000000000000000000000000000000000000000000008152600401620000a19190620002c0565b60405180910390fd5b620000bb816200014460201b60201c565b508160015f6101000a81548173ffffffffffffffffffffffffffffffffffffffff021916908373ffffffffffffffffffffffffffffffffffffffff1602179055508060025f6101000a81548173ffffffffffffffffffffffffffffffffffffffff021916908373ffffffffffffffffffffffffffffffffffffffff1602179055505050620002db565b5f805f9054906101000a900473ffffffffffffffffffffffffffffffffffffffff169050815f806101000a81548173ffffffffffffffffffffffffffffffffffffffff021916908373ffffffffffffffffffffffffffffffffffffffff1602179055508173ffffffffffffffffffffffffffffffffffffffff168173ffffffffffffffffffffffffffffffffffffffff167f8be0079c531659141344cd1fd0a4f28419497f9722a3daafe3b4186f6b6457e060405160405180910390a35050565b5f80fd5b5f73ffffffffffffffffffffffffffffffffffffffff82169050919050565b5f620002348262000209565b9050919050565b620002468162000228565b811462000251575f80fd5b50565b5f8151905062000264816200023b565b92915050565b5f806040838503121562000283576200028262000205565b5b5f620002928582860162000254565b9250506020620002a58582860162000254565b9150509250929050565b620002ba8162000228565b82525050565b5f602082019050620002d55f830184620002af565b92915050565b610e9f80620002e95f395ff3fe608060405234801561000f575f80fd5b5060043610610086575f3560e01c80638da5cb5b116100595780638da5cb5b146100ec578063d4c59b2c1461010a578063f2fde38b14610126578063f978fd611461014257610086565b8063046dc1661461008a5780632302d387146100a65780635b7633d0146100c4578063715018a6146100e2575b5f80fd5b6100a4600480360381019061009f9190610870565b610172565b005b6100ae6101bd565b6040516100bb91906108f6565b60405180910390f35b6100cc6101e2565b6040516100d9919061091e565b60405180910390f35b6100ea610207565b005b6100f461021a565b604051610101919061091e565b60405180910390f35b610124600480360381019061011f91906109cb565b610241565b005b610140600480360381019061013b9190610870565b6104ee565b005b61015c60048036038101906101579190610a5b565b610572565b6040516101699190610aa0565b60405180910390f35b61017a61058f565b8060025f6101000a81548173ffffffffffffffffffffffffffffffffffffffff021916908373ffffffffffffffffffffffffffffffffffffffff16021790555050565b60015f9054906101000a900473ffffffffffffffffffffffffffffffffffffffff1681565b60025f9054906101000a900473ffffffffffffffffffffffffffffffffffffffff1681565b61020f61058f565b6102185f610616565b565b5f805f9054906101000a900473ffffffffffffffffffffffffffffffffffffffff16905090565b5f612710846102509190610ae6565b90505f8111610294576040517f08c379a000000000000000000000000000000000000000000000000000000000815260040161028b90610b96565b60405180910390fd5b5f61029f33866106d7565b90505f6102ab82610709565b905060025f9054906101000a900473ffffffffffffffffffffffffffffffffffffffff1673ffffffffffffffffffffffffffffffffffffffff166103328287878080601f0160208091040260200160405190810160405280939291908181526020018383808284375f81840152601f19601f82011690508083019250505050505050610738565b73ffffffffffffffffffffffffffffffffffffffff1614610388576040517f08c379a000000000000000000000000000000000000000000000000000000000815260040161037f90610bfe565b60405180910390fd5b60035f8381526020019081526020015f205f9054906101000a900460ff16156103e6576040517f08c379a00000000000000000000000000000000000000000000000000000000081526004016103dd90610c66565b60405180910390fd5b600160035f8481526020019081526020015f205f6101000a81548160ff02191690831515021790555060015f9054906101000a900473ffffffffffffffffffffffffffffffffffffffff1673ffffffffffffffffffffffffffffffffffffffff166340c10f1933856040518363ffffffff1660e01b815260040161046b929190610c93565b5f604051808303815f87803b158015610482575f80fd5b505af1158015610494573d5f803e3d5ffd5b505050503373ffffffffffffffffffffffffffffffffffffffff167fc86150d66acecd30d9b0f0dfe0357c4c6b59d2c2e208e5d3d90df1b7e34b1707846040516104de9190610cba565b60405180910390a2505050505050565b6104f661058f565b5f73ffffffffffffffffffffffffffffffffffffffff168173ffffffffffffffffffffffffffffffffffffffff1603610566575f6040517f1e4fbdf700000000000000000000000000000000000000000000000000000000815260040161055d919061091e565b60405180910390fd5b61056f81610616565b50565b6003602052805f5260405f205f915054906101000a900460ff1681565b6105976107a2565b73ffffffffffffffffffffffffffffffffffffffff166105b561021a565b73ffffffffffffffffffffffffffffffffffffffff1614610614576105d86107a2565b6040517f118cdaa700000000000000000000000000000000000000000000000000000000815260040161060b919061091e565b60405180910390fd5b565b5f805f9054906101000a900473ffffffffffffffffffffffffffffffffffffffff169050815f806101000a81548173ffffffffffffffffffffffffffffffffffffffff021916908373ffffffffffffffffffffffffffffffffffffffff1602179055508173ffffffffffffffffffffffffffffffffffffffff168173ffffffffffffffffffffffffffffffffffffffff167f8be0079c531659141344cd1fd0a4f28419497f9722a3daafe3b4186f6b6457e060405160405180910390a35050565b5f82826040516020016106eb929190610d38565b60405160208183030381529060405280519060200120905092915050565b5f8160405160200161071b9190610dd7565b604051602081830303815290604052805190602001209050919050565b5f805f80610745856107a9565b9250925092506001868285856040515f815260200160405260405161076d9493929190610e26565b6020604051602081039080840390855afa15801561078d573d5f803e3d5ffd5b50505060206040510351935050505092915050565b5f33905090565b5f805f60418451146107f0576040517f08c379a00000000000000000000000000000000000000000000000000000000081526004016107e790610bfe565b60405180910390fd5b602084015192506040840151915060608401515f1a90509193909250565b5f80fd5b5f80fd5b5f73ffffffffffffffffffffffffffffffffffffffff82169050919050565b5f61083f82610816565b9050919050565b61084f81610835565b8114610859575f80fd5b50565b5f8135905061086a81610846565b92915050565b5f602082840312156108855761088461080e565b5b5f6108928482850161085c565b91505092915050565b5f819050919050565b5f6108be6108b96108b484610816565b61089b565b610816565b9050919050565b5f6108cf826108a4565b9050919050565b5f6108e0826108c5565b9050919050565b6108f0816108d6565b82525050565b5f6020820190506109095f8301846108e7565b92915050565b61091881610835565b82525050565b5f6020820190506109315f83018461090f565b92915050565b5f819050919050565b61094981610937565b8114610953575f80fd5b50565b5f8135905061096481610940565b92915050565b5f80fd5b5f80fd5b5f80fd5b5f8083601f84011261098b5761098a61096a565b5b8235905067ffffffffffffffff8111156109a8576109a761096e565b5b6020830191508360018202830111156109c4576109c3610972565b5b9250929050565b5f805f604084860312156109e2576109e161080e565b5b5f6109ef86828701610956565b935050602084013567ffffffffffffffff811115610a1057610a0f610812565b5b610a1c86828701610976565b92509250509250925092565b5f819050919050565b610a3a81610a28565b8114610a44575f80fd5b50565b5f81359050610a5581610a31565b92915050565b5f60208284031215610a7057610a6f61080e565b5b5f610a7d84828501610a47565b91505092915050565b5f8115159050919050565b610a9a81610a86565b82525050565b5f602082019050610ab35f830184610a91565b92915050565b7f4e487b71000000000000000000000000000000000000000000000000000000005f52601260045260245ffd5b5f610af082610937565b9150610afb83610937565b925082610b0b57610b0a610ab9565b5b828204905092915050565b5f82825260208201905092915050565b7f4e6f2068617920737566696369656e74652067616e616e6369612070617261205f8201527f70726573746967696f0000000000000000000000000000000000000000000000602082015250565b5f610b80602983610b16565b9150610b8b82610b26565b604082019050919050565b5f6020820190508181035f830152610bad81610b74565b9050919050565b7f4669726d6120696e76616c6964610000000000000000000000000000000000005f82015250565b5f610be8600e83610b16565b9150610bf382610bb4565b602082019050919050565b5f6020820190508181035f830152610c1581610bdc565b9050919050565b7f5265636f6d70656e7361207961207265636c616d6164610000000000000000005f82015250565b5f610c50601783610b16565b9150610c5b82610c1c565b602082019050919050565b5f6020820190508181035f830152610c7d81610c44565b9050919050565b610c8d81610937565b82525050565b5f604082019050610ca65f83018561090f565b610cb36020830184610c84565b9392505050565b5f602082019050610ccd5f830184610c84565b92915050565b5f8160601b9050919050565b5f610ce982610cd3565b9050919050565b5f610cfa82610cdf565b9050919050565b610d12610d0d82610835565b610cf0565b82525050565b5f819050919050565b610d32610d2d82610937565b610d18565b82525050565b5f610d438285610d01565b601482019150610d538284610d21565b6020820191508190509392505050565b5f81905092915050565b7f19457468657265756d205369676e6564204d6573736167653a0a3332000000005f82015250565b5f610da1601c83610d63565b9150610dac82610d6d565b601c82019050919050565b5f819050919050565b610dd1610dcc82610a28565b610db7565b82525050565b5f610de182610d95565b9150610ded8284610dc0565b60208201915081905092915050565b610e0581610a28565b82525050565b5f60ff82169050919050565b610e2081610e0b565b82525050565b5f608082019050610e395f830187610dfc565b610e466020830186610e17565b610e536040830185610dfc565b610e606060830184610dfc565b9594505050505056fea26469706673582212208faa4668a58f2ef340815dc5eeff3e885d659c5bd43eded2d4d2436aa139677c64736f6c63430008140033","linkReferences":{}},"methodIdentifiers":{"claimPrestigeReward(uint256,bytes)":"d4c59b2c","owner()":"8da5cb5b","prestigeToken()":"2302d387","renounceOwnership()":"715018a6","setSignerAddress(address)":"046dc166","signerAddress()":"5b7633d0","transferOwnership(address)":"f2fde38b","usedSignatures(bytes32)":"f978fd61"},"id":28}