{"abi":[{"type":"constructor","inputs":[],"stateMutability":"nonpayable"},{"type":"function","name":"allowance","inputs":[{"name":"owner","type":"address","internalType":"address"},{"name":"spender","type":"address","internalType":"address"}],"outputs":[{"name":"","type":"uint256","internalType":"uint256"}],"stateMutability":"view"},{"type":"function","name":"approve","inputs":[{"name":"spender","type":"address","internalType":"address"},{"name":"value","type":"uint256","internalType":"uint256"}],"outputs":[{"name":"","type":"bool","internalType":"bool"}],"stateMutability":"nonpayable"},{"type":"function","name":"balanceOf","inputs":[{"name":"account","type":"address","internalType":"address"}],"outputs":[{"name":"","type":"uint256","internalType":"uint256"}],"stateMutability":"view"},{"type":"function","name":"decimals","inputs":[],"outputs":[{"name":"","type":"uint8","internalType":"uint8"}],"stateMutability":"view"},{"type":"function","name":"gameManager","inputs":[],"outputs":[{"name":"","type":"address","internalType":"address"}],"stateMutability":"view"},{"type":"function","name":"mint","inputs":[{"name":"to","type":"address","internalType":"address"},{"name":"amount","type":"uint256","internalType":"uint256"}],"outputs":[],"stateMutability":"nonpayable"},{"type":"function","name":"name","inputs":[],"outputs":[{"name":"","type":"string","internalType":"string"}],"stateMutability":"view"},{"type":"function","name":"owner","inputs":[],"outputs":[{"name":"","type":"address","internalType":"address"}],"stateMutability":"view"},{"type":"function","name":"renounceOwnership","inputs":[],"outputs":[],"stateMutability":"nonpayable"},{"type":"function","name":"setGameManager","inputs":[{"name":"_gameManager","type":"address","internalType":"address"}],"outputs":[],"stateMutability":"nonpayable"},{"type":"function","name":"symbol","inputs":[],"outputs":[{"name":"","type":"string","internalType":"string"}],"stateMutability":"view"},{"type":"function","name":"totalSupply","inputs":[],"outputs":[{"name":"","type":"uint256","internalType":"uint256"}],"stateMutability":"view"},{"type":"function","name":"transfer","inputs":[{"name":"to","type":"address","internalType":"address"},{"name":"value","type":"uint256","internalType":"uint256"}],"outputs":[{"name":"","type":"bool","internalType":"bool"}],"stateMutability":"nonpayable"},{"type":"function","name":"transferFrom","inputs":[{"name":"from","type":"address","internalType":"address"},{"name":"to","type":"address","internalType":"address"},{"name":"value","type":"uint256","internalType":"uint256"}],"outputs":[{"name":"","type":"bool","internalType":"bool"}],"stateMutability":"nonpayable"},{"type":"function","name":"transferOwnership","inputs":[{"name":"newOwner","type":"address","internalType":"address"}],"outputs":[],"stateMutability":"nonpayable"},{"type":"event","name":"Approval","inputs":[{"name":"owner","type":"address","indexed":true,"internalType":"address"},{"name":"spender","type":"address","indexed":true,"internalType":"address"},{"name":"value","type":"uint256","indexed":false,"internalType":"uint256"}],"anonymous":false},{"type":"event","name":"OwnershipTransferred","inputs":[{"name":"previousOwner","type":"address","indexed":true,"internalType":"address"},{"name":"newOwner","type":"address","indexed":true,"internalType":"address"}],"anonymous":false},{"type":"event","name":"Transfer","inputs":[{"name":"from","type":"address","indexed":true,"internalType":"address"},{"name":"to","type":"address","indexed":true,"internalType":"address"},{"name":"value","type":"uint256","indexed":false,"internalType":"uint256"}],"anonymous":false},{"type":"error","name":"ERC20InsufficientAllowance","inputs":[{"name":"spender","type":"address","internalType":"address"},{"name":"allowance","type":"uint256","internalType":"uint256"},{"name":"needed","type":"uint256","internalType":"uint256"}]},{"type":"error","name":"ERC20InsufficientBalance","inputs":[{"name":"sender","type":"address","internalType":"address"},{"name":"balance","type":"uint256","internalType":"uint256"},{"name":"needed","type":"uint256","internalType":"uint256"}]},{"type":"error","name":"ERC20InvalidApprover","inputs":[{"name":"approver","type":"address","internalType":"address"}]},{"type":"error","name":"ERC20InvalidReceiver","inputs":[{"name":"receiver","type":"address","internalType":"address"}]},{"type":"error","name":"ERC20InvalidSender","inputs":[{"name":"sender","type":"address","internalType":"address"}]},{"type":"error","name":"ERC20InvalidSpender","inputs":[{"name":"spender","type":"address","internalType":"address"}]},{"type":"error","name":"OwnableInvalidOwner","inputs":[{"name":"owner","type":"address","internalType":"address"}]},{"type":"error","name":"OwnableUnauthorizedAccount","inputs":[{"name":"account","type":"address","internalType":"address"}]}],"bytecode":{"object":"0x608060405234801561000f575f5ffd5b50336040518060400160405280600e81526020017f507265737469676520546f6b656e0000000000000000000000000000000000008152506040518060400160405280600881526020017f5052455354494745000000000000000000000000000000000000000000000000815250816003908161008c9190610424565b50806004908161009c9190610424565b5050505f73ffffffffffffffffffffffffffffffffffffffff168173ffffffffffffffffffffffffffffffffffffffff160361010f575f6040517f1e4fbdf70000000000000000000000000000000000000000000000000000000081526004016101069190610532565b60405180910390fd5b61011e8161012460201b60201c565b5061054b565b5f60055f9054906101000a900473ffffffffffffffffffffffffffffffffffffffff1690508160055f6101000a81548173ffffffffffffffffffffffffffffffffffffffff021916908373ffffffffffffffffffffffffffffffffffffffff1602179055508173ffffffffffffffffffffffffffffffffffffffff168173ffffffffffffffffffffffffffffffffffffffff167f8be0079c531659141344cd1fd0a4f28419497f9722a3daafe3b4186f6b6457e060405160405180910390a35050565b5f81519050919050565b7f4e487b71000000000000000000000000000000000000000000000000000000005f52604160045260245ffd5b7f4e487b71000000000000000000000000000000000000000000000000000000005f52602260045260245ffd5b5f600282049050600182168061026257607f821691505b6020821081036102755761027461021e565b5b50919050565b5f819050815f5260205f209050919050565b5f6020601f8301049050919050565b5f82821b905092915050565b5f600883026102d77fffffffffffffffffffffffffffffffffffffffffffffffffffffffffffffffff8261029c565b6102e1868361029c565b95508019841693508086168417925050509392505050565b5f819050919050565b5f819050919050565b5f61032561032061031b846102f9565b610302565b6102f9565b9050919050565b5f819050919050565b61033e8361030b565b61035261034a8261032c565b8484546102a8565b825550505050565b5f5f905090565b61036961035a565b610374818484610335565b505050565b5b818110156103975761038c5f82610361565b60018101905061037a565b5050565b601f8211156103dc576103ad8161027b565b6103b68461028d565b810160208510156103c5578190505b6103d96103d18561028d565b830182610379565b50505b505050565b5f82821c905092915050565b5f6103fc5f19846008026103e1565b1980831691505092915050565b5f61041483836103ed565b9150826002028217905092915050565b61042d826101e7565b67ffffffffffffffff811115610446576104456101f1565b5b610450825461024b565b61045b82828561039b565b5f60209050601f83116001811461048c575f841561047a578287015190505b6104848582610409565b8655506104eb565b601f19841661049a8661027b565b5f5b828110156104c15784890151825560018201915060208501945060208101905061049c565b868310156104de57848901516104da601f8916826103ed565b8355505b6001600288020188555050505b505050505050565b5f73ffffffffffffffffffffffffffffffffffffffff82169050919050565b5f61051c826104f3565b9050919050565b61052c81610512565b82525050565b5f6020820190506105455f830184610523565b92915050565b611301806105585f395ff3fe608060405234801561000f575f5ffd5b50600436106100f3575f3560e01c8063715018a611610095578063b7127e4111610064578063b7127e4114610273578063c6b052661461028f578063dd62ed3e146102ad578063f2fde38b146102dd576100f3565b8063715018a6146101fd5780638da5cb5b1461020757806395d89b4114610225578063a9059cbb14610243576100f3565b806323b872dd116100d157806323b872dd14610163578063313ce5671461019357806340c10f19146101b157806370a08231146101cd576100f3565b806306fdde03146100f7578063095ea7b31461011557806318160ddd14610145575b5f5ffd5b6100ff6102f9565b60405161010c9190610eec565b60405180910390f35b61012f600480360381019061012a9190610f9d565b610389565b60405161013c9190610ff5565b60405180910390f35b61014d6103ab565b60405161015a919061101d565b60405180910390f35b61017d60048036038101906101789190611036565b6103b4565b60405161018a9190610ff5565b60405180910390f35b61019b6103e2565b6040516101a891906110a1565b60405180910390f35b6101cb60048036038101906101c69190610f9d565b6103ea565b005b6101e760048036038101906101e291906110ba565b610487565b6040516101f4919061101d565b60405180910390f35b6102056104cc565b005b61020f6104df565b60405161021c91906110f4565b60405180910390f35b61022d610507565b60405161023a9190610eec565b60405180910390f35b61025d60048036038101906102589190610f9d565b610597565b60405161026a9190610ff5565b60405180910390f35b61028d600480360381019061028891906110ba565b6105b9565b005b610297610604565b6040516102a491906110f4565b60405180910390f35b6102c760048036038101906102c2919061110d565b610629565b6040516102d4919061101d565b60405180910390f35b6102f760048036038101906102f291906110ba565b6106ab565b005b60606003805461030890611178565b80601f016020809104026020016040519081016040528092919081815260200182805461033490611178565b801561037f5780601f106103565761010080835404028352916020019161037f565b820191905f5260205f20905b81548152906001019060200180831161036257829003601f168201915b5050505050905090565b5f5f61039361072f565b90506103a0818585610736565b600191505092915050565b5f600254905090565b5f5f6103be61072f565b90506103cb858285610748565b6103d68585856107db565b60019150509392505050565b5f6012905090565b60065f9054906101000a900473ffffffffffffffffffffffffffffffffffffffff1673ffffffffffffffffffffffffffffffffffffffff163373ffffffffffffffffffffffffffffffffffffffff1614610479576040517f08c379a000000000000000000000000000000000000000000000000000000000815260040161047090611218565b60405180910390fd5b61048382826108cb565b5050565b5f5f5f8373ffffffffffffffffffffffffffffffffffffffff1673ffffffffffffffffffffffffffffffffffffffff1681526020019081526020015f20549050919050565b6104d461094a565b6104dd5f6109d1565b565b5f60055f9054906101000a900473ffffffffffffffffffffffffffffffffffffffff16905090565b60606004805461051690611178565b80601f016020809104026020016040519081016040528092919081815260200182805461054290611178565b801561058d5780601f106105645761010080835404028352916020019161058d565b820191905f5260205f20905b81548152906001019060200180831161057057829003601f168201915b5050505050905090565b5f5f6105a161072f565b90506105ae8185856107db565b600191505092915050565b6105c161094a565b8060065f6101000a81548173ffffffffffffffffffffffffffffffffffffffff021916908373ffffffffffffffffffffffffffffffffffffffff16021790555050565b60065f9054906101000a900473ffffffffffffffffffffffffffffffffffffffff1681565b5f60015f8473ffffffffffffffffffffffffffffffffffffffff1673ffffffffffffffffffffffffffffffffffffffff1681526020019081526020015f205f8373ffffffffffffffffffffffffffffffffffffffff1673ffffffffffffffffffffffffffffffffffffffff1681526020019081526020015f2054905092915050565b6106b361094a565b5f73ffffffffffffffffffffffffffffffffffffffff168173ffffffffffffffffffffffffffffffffffffffff1603610723575f6040517f1e4fbdf700000000000000000000000000000000000000000000000000000000815260040161071a91906110f4565b60405180910390fd5b61072c816109d1565b50565b5f33905090565b6107438383836001610a94565b505050565b5f6107538484610629565b90507fffffffffffffffffffffffffffffffffffffffffffffffffffffffffffffffff8110156107d557818110156107c6578281836040517ffb8f41b20000000000000000000000000000000000000000000000000000000081526004016107bd93929190611236565b60405180910390fd5b6107d484848484035f610a94565b5b50505050565b5f73ffffffffffffffffffffffffffffffffffffffff168373ffffffffffffffffffffffffffffffffffffffff160361084b575f6040517f96c6fd1e00000000000000000000000000000000000000000000000000000000815260040161084291906110f4565b60405180910390fd5b5f73ffffffffffffffffffffffffffffffffffffffff168273ffffffffffffffffffffffffffffffffffffffff16036108bb575f6040517fec442f050000000000000000000000000000000000000000000000000000000081526004016108b291906110f4565b60405180910390fd5b6108c6838383610c63565b505050565b5f73ffffffffffffffffffffffffffffffffffffffff168273ffffffffffffffffffffffffffffffffffffffff160361093b575f6040517fec442f0500000000000000000000000000000000000000000000000000000000815260040161093291906110f4565b60405180910390fd5b6109465f8383610c63565b5050565b61095261072f565b73ffffffffffffffffffffffffffffffffffffffff166109706104df565b73ffffffffffffffffffffffffffffffffffffffff16146109cf5761099361072f565b6040517f118cdaa70000000000000000000000000000000000000000000000000000000081526004016109c691906110f4565b60405180910390fd5b565b5f60055f9054906101000a900473ffffffffffffffffffffffffffffffffffffffff1690508160055f6101000a81548173ffffffffffffffffffffffffffffffffffffffff021916908373ffffffffffffffffffffffffffffffffffffffff1602179055508173ffffffffffffffffffffffffffffffffffffffff168173ffffffffffffffffffffffffffffffffffffffff167f8be0079c531659141344cd1fd0a4f28419497f9722a3daafe3b4186f6b6457e060405160405180910390a35050565b5f73ffffffffffffffffffffffffffffffffffffffff168473ffffffffffffffffffffffffffffffffffffffff1603610b04575f6040517fe602df05000000000000000000000000000000000000000000000000000000008152600401610afb91906110f4565b60405180910390fd5b5f73ffffffffffffffffffffffffffffffffffffffff168373ffffffffffffffffffffffffffffffffffffffff1603610b74575f6040517f94280d62000000000000000000000000000000000000000000000000000000008152600401610b6b91906110f4565b60405180910390fd5b8160015f8673ffffffffffffffffffffffffffffffffffffffff1673ffffffffffffffffffffffffffffffffffffffff1681526020019081526020015f205f8573ffffffffffffffffffffffffffffffffffffffff1673ffffffffffffffffffffffffffffffffffffffff1681526020019081526020015f20819055508015610c5d578273ffffffffffffffffffffffffffffffffffffffff168473ffffffffffffffffffffffffffffffffffffffff167f8c5be1e5ebec7d5bd14f71427d1e84f3dd0314c0f7b2291e5b200ac8c7c3b92584604051610c54919061101d565b60405180910390a35b50505050565b5f73ffffffffffffffffffffffffffffffffffffffff168373ffffffffffffffffffffffffffffffffffffffff1603610cb3578060025f828254610ca79190611298565b92505081905550610d81565b5f5f5f8573ffffffffffffffffffffffffffffffffffffffff1673ffffffffffffffffffffffffffffffffffffffff1681526020019081526020015f2054905081811015610d3c578381836040517fe450d38c000000000000000000000000000000000000000000000000000000008152600401610d3393929190611236565b60405180910390fd5b8181035f5f8673ffffffffffffffffffffffffffffffffffffffff1673ffffffffffffffffffffffffffffffffffffffff1681526020019081526020015f2081905550505b5f73ffffffffffffffffffffffffffffffffffffffff168273ffffffffffffffffffffffffffffffffffffffff1603610dc8578060025f8282540392505081905550610e12565b805f5f8473ffffffffffffffffffffffffffffffffffffffff1673ffffffffffffffffffffffffffffffffffffffff1681526020019081526020015f205f82825401925050819055505b8173ffffffffffffffffffffffffffffffffffffffff168373ffffffffffffffffffffffffffffffffffffffff167fddf252ad1be2c89b69c2b068fc378daa952ba7f163c4a11628f55a4df523b3ef83604051610e6f919061101d565b60405180910390a3505050565b5f81519050919050565b5f82825260208201905092915050565b8281835e5f83830152505050565b5f601f19601f8301169050919050565b5f610ebe82610e7c565b610ec88185610e86565b9350610ed8818560208601610e96565b610ee181610ea4565b840191505092915050565b5f6020820190508181035f830152610f048184610eb4565b905092915050565b5f5ffd5b5f73ffffffffffffffffffffffffffffffffffffffff82169050919050565b5f610f3982610f10565b9050919050565b610f4981610f2f565b8114610f53575f5ffd5b50565b5f81359050610f6481610f40565b92915050565b5f819050919050565b610f7c81610f6a565b8114610f86575f5ffd5b50565b5f81359050610f9781610f73565b92915050565b5f5f60408385031215610fb357610fb2610f0c565b5b5f610fc085828601610f56565b9250506020610fd185828601610f89565b9150509250929050565b5f8115159050919050565b610fef81610fdb565b82525050565b5f6020820190506110085f830184610fe6565b92915050565b61101781610f6a565b82525050565b5f6020820190506110305f83018461100e565b92915050565b5f5f5f6060848603121561104d5761104c610f0c565b5b5f61105a86828701610f56565b935050602061106b86828701610f56565b925050604061107c86828701610f89565b9150509250925092565b5f60ff82169050919050565b61109b81611086565b82525050565b5f6020820190506110b45f830184611092565b92915050565b5f602082840312156110cf576110ce610f0c565b5b5f6110dc84828501610f56565b91505092915050565b6110ee81610f2f565b82525050565b5f6020820190506111075f8301846110e5565b92915050565b5f5f6040838503121561112357611122610f0c565b5b5f61113085828601610f56565b925050602061114185828601610f56565b9150509250929050565b7f4e487b71000000000000000000000000000000000000000000000000000000005f52602260045260245ffd5b5f600282049050600182168061118f57607f821691505b6020821081036111a2576111a161114b565b5b50919050565b7f536f6c6f20656c2047616d654d616e61676572207075656465206c6c616d61725f8201527f206120657374612066756e63696f6e0000000000000000000000000000000000602082015250565b5f611202602f83610e86565b915061120d826111a8565b604082019050919050565b5f6020820190508181035f83015261122f816111f6565b9050919050565b5f6060820190506112495f8301866110e5565b611256602083018561100e565b611263604083018461100e565b949350505050565b7f4e487b71000000000000000000000000000000000000000000000000000000005f52601160045260245ffd5b5f6112a282610f6a565b91506112ad83610f6a565b92508282019050808211156112c5576112c461126b565b5b9291505056fea264697066735822122014a6a4c4a9bf1907f597a9e654cdb15b51ab2aa6ee39144a5092486349eedfdd64736f6c634300081e0033","linkReferences":{}},"methodIdentifiers":{"allowance(address,address)":"dd62ed3e","approve(address,uint256)":"095ea7b3","balanceOf(address)":"70a08231","decimals()":"313ce567","gameManager()":"c6b05266","mint(address,uint256)":"40c10f19","name()":"06fdde03","owner()":"8da5cb5b","renounceOwnership()":"715018a6","setGameManager(address)":"b7127e41","symbol()":"95d89b41","totalSupply()":"18160ddd","transfer(address,uint256)":"a9059cbb","transferFrom(address,address,uint256)":"23b872dd","transferOwnership(address)":"f2fde38b"},"id":29}