{"abi":[{"type":"function","name":"execute","inputs":[{"name":"to","type":"address","internalType":"address"},{"name":"value","type":"uint256","internalType":"uint256"},{"name":"data","type":"bytes","internalType":"bytes"}],"outputs":[],"stateMutability":"payable"}],"bytecode":{"object":"0x6080604052348015600e575f5ffd5b506102b18061001c5f395ff3fe60806040526004361061001d575f3560e01c8063b61d27f614610021575b5f5ffd5b61003b600480360381019061003691906101b6565b61003d565b005b5f5f8573ffffffffffffffffffffffffffffffffffffffff16858585604051610067929190610263565b5f6040518083038185875af1925050503d805f81146100a1576040519150601f19603f3d011682016040523d82523d5f602084013e6100a6565b606091505b5091509150816100b857805160208201fd5b505050505050565b5f5ffd5b5f5ffd5b5f73ffffffffffffffffffffffffffffffffffffffff82169050919050565b5f6100f1826100c8565b9050919050565b610101816100e7565b811461010b575f5ffd5b50565b5f8135905061011c816100f8565b92915050565b5f819050919050565b61013481610122565b811461013e575f5ffd5b50565b5f8135905061014f8161012b565b92915050565b5f5ffd5b5f5ffd5b5f5ffd5b5f5f83601f84011261017657610175610155565b5b8235905067ffffffffffffffff81111561019357610192610159565b5b6020830191508360018202830111156101af576101ae61015d565b5b9250929050565b5f5f5f5f606085870312156101ce576101cd6100c0565b5b5f6101db8782880161010e565b94505060206101ec87828801610141565b935050604085013567ffffffffffffffff81111561020d5761020c6100c4565b5b61021987828801610161565b925092505092959194509250565b5f81905092915050565b828183375f83830152505050565b5f61024a8385610227565b9350610257838584610231565b82840190509392505050565b5f61026f82848661023f565b9150819050939250505056fea264697066735822122082d0e68853aab9863365f5506a9ddb850ef342507e63ac30a28da5f5a0da54bc64736f6c634300081e0033","linkReferences":{}},"id":22}